:020000040000FA
:100000000C9462000C948A000C948A000C948A0070
:100010000C948A000C948A000C948A000C948A0038
:100020000C948A000C948A000C948A000C948A0028
:100030000C948A000C948A000C948A000C948A0018
:100040000C9406080C948A000C94D4070C94AE0708
:100050000C948A000C948A000C948A000C948A00F8
:100060000C9450080C948A00000000002400270023
:100070002A0000000000250028002B0000000000DE
:1000800023002600290004040404040404040202DA
:100090000202020203030303030301020408102007
:1000A0004080010204081020010204081020000012
:1000B0000008000201000003040700000000000027
:1000C00000006F0911241FBECFEFD8E0DEBFCDBF07
:1000D00011E0A0E0B1E0E2E9FCE102C005900D9280
:1000E000A037B107D9F722E0A0E7B1E001C01D9227
:1000F000A33FB207E1F710E0C2E6D0E004C02197C9
:10010000FE010E94320EC136D107C9F70E94A8092C
:100110000C94470E0C94000008950895AF92BF927E
:10012000CF92DF92EF92FF920F931F93CF93DF93C3
:100130006C017B018B01040F151FEB015E01AE18F2
:10014000BF08C017D10759F06991D601ED91FC9114
:100150000190F081E02DC6010995892B79F7C50141
:10016000DF91CF911F910F91FF90EF90DF90CF9093
:10017000BF90AF900895FC01538D448D252F30E042
:10018000842F90E0821B930B541710F0CF960895A4
:1001900001970895FC01918D828D981761F0A28DD1
:1001A000AE0FBF2FB11D5D968C91928D9F5F9F7397
:1001B000928F90E008958FEF9FEF0895FC01918D4D
:1001C000828D981731F0828DE80FF11D858D90E0BA
:1001D00008958FEF9FEF0895FC01918D228D892F57
:1001E00090E0805C9F4F821B91098F73992708953F
:1001F00083E392E00E94EC0021E0892B09F420E0E7
:10020000822F089580E090E0892B29F00E94F80069
:1002100081110C9400000895FC01A48DA80FB92F42
:10022000B11DA35ABF4F2C91848D90E001968F731E
:100230009927848FA689B7892C93A089B1898C913D
:10024000837080648C93938D848D981306C002888C
:10025000F389E02D80818F7D80830895EF92FF9256
:100260000F931F93CF93DF93EC0181E0888F9B8DD9
:100270008C8D98131AC0E889F989808185FF15C093
:100280009FB7F894EE89FF896083E889F9898081B6
:100290008370806480839FBF81E090E0DF91CF9185
:1002A0001F910F91FF90EF900895F62E0B8D10E0A7
:1002B0000F5F1F4F0F731127E02E8C8D8E110CC016
:1002C0000FB607FCFACFE889F989808185FFF5CF61
:1002D000CE010E940C01F1CFEB8DEC0FFD2FF11D33
:1002E000E35AFF4FF0829FB7F8940B8FEA89FB899E
:1002F00080818062CFCFCF93DF93EC01888D8823FC
:10030000B9F0AA89BB89E889F9898C9185FD03C078
:10031000808186FD0DC00FB607FCF7CF8C9185FF5D
:10032000F2CF808185FFEDCFCE010E940C01E9CF95
:10033000DF91CF910895833081F028F4813099F0D6
:100340008230A9F008958730A9F08830C9F0843050
:10035000B1F4809180008F7D03C0809180008F7701
:1003600080938000089584B58F7784BD089584B507
:100370008F7DFBCF8091B0008F778093B000089580
:100380008091B0008F7DF9CF1F93CF93DF93282FFB
:1003900030E0F901E255FF4F8491F901E656FF4F35
:1003A000D491F901EA57FF4FC491CC23A9F0162F3D
:1003B00081110E949B01EC2FF0E0EE0FFF1FEE5821
:1003C000FF4FA591B4918FB7F894EC91111108C02B
:1003D000D095DE23DC938FBFDF91CF911F910895DD
:1003E000DE2BF8CFCF93DF9390E0FC01E656FF4F72
:1003F00024918A579F4FFC0184918823D1F090E08B
:10040000880F991FFC01E859FF4FA591B491FC0199
:10041000EE58FF4FC591D491623071F49FB7F894B4
:100420003C91822F809583238C93E8812E2B288307
:100430009FBFDF91CF9108958FB7F894EC912E2B49
:100440002C938FBFF6CF3FB7F8948091B90190916C
:10045000BA01A091BB01B091BC0126B5A89B05C013
:100460002F3F19F00196A11DB11D3FBFBA2FA92F33
:10047000982F8827BC01CD01620F711D811D911D30
:1004800042E0660F771F881F991F4A95D1F708959C
:100490008F929F92AF92BF92CF92DF92EF92FF9294
:1004A0004B015C010E9423026B017C010E9423022C
:1004B0006C197D098E099F09683E7340810591057D
:1004C000A8F321E0821A9108A108B10888EEC80EAD
:1004D00083E0D81EE11CF11C81149104A104B10435
:1004E00029F7FF90EF90DF90CF90BF90AF909F9053
:1004F0008F90089520919101260F3327331F2132C9
:100500003105ECF420910902FC0190E080E02430F8
:1005100069F082E00895A09191012191AC014F58BA
:100520005E4FA40FB52FB11D2C930196861798F33B
:1005300080919101680F6093910180E0089581E0BE
:1005400008951092090281E0809308021092E3015D
:1005500061E082E10E94C40161E083E10E94C40184
:10056000E9EBF0E080818E7F808380818D7F8083C6
:1005700088E48093B80085E48093BC000895CF930D
:10058000DF9391E0909370018823B9F0C091B80097
:10059000D091BA008091BC008A7B8093BC0060E05F
:1005A00082E10E94C40160E083E10E94C4010E94D4
:1005B000A102D093BA00C093B800DF91CF91089503
:1005C000CF92DF92EF92FF920F931F93CF93DF931F
:1005D000D091320281E0D13208F09CC0C09131024A
:1005E0000E9423026B017C018091090281116CC081
:1005F00082E08093090281E0809308028FEF80936C
:10060000070210920602D0930502A1E1B2E0E5EEE6
:10061000F1E080E0D8138DC01092E4018091E401F4
:10062000CC0FC82BC093E4018091E301813009F025
:1006300084C01092E3010E9423026B017C0180912F
:10064000E4018093BB0080910B0290910C02A09179
:100650000D02B0910E02892B8A2B8B2BA1F00E94E8
:10066000230200910B0210910C0220910D02309197
:100670000E026C197D098E099F09061717072807B6
:10068000390708F442C08091BC0083FDD8CF85ECC7
:100690008093BC000E9423026B017C0180910902BF
:1006A000823009F44CC0809107028F3F09F469C081
:1006B00080910702803209F466C08091070280337E
:1006C00009F463C084E026C080910B0290910C0273
:1006D000A0910D02B0910E02892B8A2B8B2B09F46D
:1006E00083CF0E94230200910B0210910C022091F3
:1006F0000D0230910E026C197D098E099F090617B3
:1007000017072807390708F06FCF80910A020E9467
:10071000BF0285E0109210021092320210920F0276
:10072000DF91CF911F910F91FF90EF90DF90CF90CD
:1007300008959D9191938F5F6DCF85EEA9CF8091A4
:100740000B0290910C02A0910D02B0910E02892B28
:100750008A2B8B2B09F4A2CF0E94230200910B025B
:1007600010910C0220910D0230910E026C197D093E
:100770008E099F09061717072807390708F08ECF3B
:10078000C4CF80E0C7CF82E0C5CF83E0C3CFCF9294
:10079000DF92EF92FF920F931F93CF93DF93D82FA7
:1007A000C62F613208F098C00E9423026B017C01C1
:1007B0008091090281116BC081E0809309028093CE
:1007C00008029FEF90930702109206029C0F9093ED
:1007D00005028093E4018091E401DD0FD82BD093D2
:1007E000E4018091E301813009F078C01092E301C7
:1007F0000E9423026B017C018091E4018093BB0085
:1008000080910B0290910C02A0910D02B0910E020A
:10081000892B8A2B8B2BA1F00E94230200910B02C3
:1008200010910C0220910D0230910E026C197D097D
:100830008E099F09061717072807390708F448C0CB
:100840008091BC0083FDD8CF85EC8093BC000E94D2
:1008500023026B017C0180910902813009F440C0C0
:10086000809106028C1710F4C0910602E5EEF1E0CB
:10087000A3ECB1E080E08C1355C08C2FDF91CF91B9
:100880001F910F91FF90EF90DF90CF90089580918E
:100890000B0290910C02A0910D02B0910E02892BD7
:1008A0008A2B8B2B09F484CF0E94230200910B0228
:1008B00010910C0220910D0230910E026C197D09ED
:1008C0008E099F09061717072807390708F070CF08
:1008D00080910A020E94BF02C0E0CFCF85EEB5CF63
:1008E00080910B0290910C02A0910D02B0910E022A
:1008F000892B8A2B8B2B09F4AECF0E942302009107
:100900000B0210910C0220910D0230910E026C1915
:100910007D098E099F09061717072807390708F070
:100920009ACFD6CF91919D938F5FA5CF0895E091F7
:10093000C2018091C101E81730F4F0E0ED53FE4FA1
:10094000808190E008958FEF9FEF08959091C2010C
:100950008091C1012FEF3FEF981748F4E92FF0E0A5
:10096000ED53FE4F208130E09F5F9093C201C9019B
:1009700008958091C1019091C201891B990B08953E
:10098000CF92DF92EF92FF920F931F93CF93DF935B
:100990007C01CB018A0120910F02222389F0EB0117
:1009A0006B01C40ED51ECC15DD0569F06991D70128
:1009B000ED91FC910190F081E02DC7010995F3CFF5
:1009C000642F0E947A02C801DF91CF911F910F918D
:1009D000FF90EF90DF90CF900895CF93DF931F9219
:1009E000CDB7DEB7698320910F022223F9F0209161
:1009F0003202203258F021E030E0FC0133832283C0
:100A000090E080E00F90DF91CF91089580911002E7
:100A1000E82FF0E0EF5EFD4F998190838F5F809328
:100A200010028093320281E090E0ECCF61E0CE01D1
:100A300001960E947A02F7CFCF93C82F81E080936E
:100A40000F0287E780933102109210021092320257
:100A500064EF80ED92E00E94ED046C2F80ED92E057
:100A60000E94ED04CF910C94E00290E080E00895A4
:100A7000CF93DF93FC0101900020E9F73197AF019C
:100A8000481B590BBC0183E392E00E948E00EC01ED
:100A900042E050E064E271E083E392E00E948E0065
:100AA0008C0F9D1FDF91CF910895CF93DF93C1E00D
:100AB000C0930F0297E790933102109210021092A8
:100AC0003202682F80ED92E00E94ED040E94E00265
:100AD000C0930F02109210021092320262E087E778
:100AE0000E94C7031092C2018093C10180ED92E081
:100AF0000E94A604D82F80E0C82F80ED92E00E94CB
:100B0000A604C82BD92B0E94E002CE01DF91CF9121
:100B100008958EE20E941C0565E070E080E090E0A0
:100B20000E94480286EF0C945505CF93C1E0C09314
:100B30000F0297E790933102109210021092320246
:100B4000682F80ED92E00E94ED040E94E002C093C5
:100B50000F02109210021092320261E087E70E94A9
:100B6000C7031092C2018093C10180ED92E00E9400
:100B7000A604C82F0E94E0028C2FCF9108954F92B7
:100B80005F926F927F928F929F92AF92BF92CF921D
:100B9000DF92EF92FF92CF93DF9300D000D01F92AD
:100BA000CDB7DEB70E9489054C01B12CA12C8091F4
:100BB000DC028295880F880F807C8C5C0E941C056B
:100BC0008091DC02811174C165E070E080E090E00A
:100BD0000E94480286EF0E945505B0E0A0E0CC24B8
:100BE000D82EE92EFA2E88EF0E949505A7019601CE
:100BF000282B29833A834B835C833091DC023D832D
:100C00008091F1029091F202A5019401281B390B09
:100C100041095109A091EF02B091F0020E941F0E0C
:100C20004B015C01AFE0B594A79497948794AA9583
:100C3000D1F76091E9027091EA02072E000C880B4F
:100C4000990BBBE0660F771F881F991FBA95D1F7E4
:100C50002091EB023091EC02032E000C440B550B5B
:100C6000280D391D4A1D5B1D0E94000E820E931E29
:100C7000A41EB51E7501640140EAC41A4FE0D40AEF
:100C8000E108F108A7019601C701B6010E94CE0D47
:100C90004B015C018CE0B594A794979487948A9556
:100CA000D1F7A091E102B091E2020E942A0E2B013D
:100CB0003C019DE075946794579447949A95D1F7B9
:100CC000A091E302B091E402A50194010E942A0ED2
:100CD0009C01552737FD5095452F240D351D461D88
:100CE000571D2E5F3F4F4F4F5F4F62E05595479521
:100CF000379527956A95D1F730584F4F5F4FA091A0
:100D0000ED02B091EE020E941F0E2B013C017FE02C
:100D100076946794579447947A95D1F788E090E059
:100D20005D81851B910929813A814B815C8104C0D9
:100D300056954795379527958A95D2F729833A8313
:100D40004B835C83A091E502B091E602A50194017A
:100D50000E942A0E4B015C01EBE0B594A794979496
:100D60008794EA95D1F7A091DF02B091E002A70144
:100D700096010E942A0EFBE09595879577956795D9
:100D8000FA95D1F7680D791D8A1D9B1D8090DD02B3
:100D90009090DE02092C000CAA08BB08A2E0880C87
:100DA000991CAA1CBB1CAA95D1F7680D791D8A1D38
:100DB0009B1D0D8004C0660F771F881F991F0A9422
:100DC000D2F76E5F7F4F8F4F9F4F24E030E040E0BF
:100DD00050E00E94000E89819A81AB81BC81821B08
:100DE000930BA40BB50B9C01AD0160E573EC80E0A7
:100DF00090E00D8004C096958795779567950A9445
:100E0000D2F70E94CE0D97FD66C0660F771F881F30
:100E1000991FA30192010E94DE0D69017A019927B1
:100E2000F7FC9A958F2D7E2D6D2D9B01AC010E94B4
:100E3000CE0D9B01AC01AEEDBBE00E941F0E4B013D
:100E40005C01A3E4B3EEA70196010E942D0EBC0144
:100E5000992777FD9095892F4501BB2497FCB09485
:100E6000AB2C680D791D8A1D9B1D6153714F8F4FEF
:100E70009F4F44E095958795779567954A95D1F76B
:100E80006C0D7D1D8E1D9F1D0F900F900F900F906C
:100E90000F90DF91CF91FF90EF90DF90CF90BF90B8
:100EA000AF909F908F907F906F905F904F9008953C
:100EB000813029F468E070E080E090E089CE8230F3
:100EC00029F46EE070E080E090E082CE6AE170E0AC
:100ED00080E090E07DCEA30192010E94DE0D6901C9
:100EE0007A01CC0CDD1CEE1CFF1C99CF85ED8093A4
:100EF000BC0080910B0290910C02A0910D02B09168
:100F00000E020796A11DB11D23E0B695A7959795F2
:100F100087952A95D1F72091BC0024FD03C010923B
:100F20000902089540910B0250910C0260910D024C
:100F300070910E02452B462B472B69F30097A105B4
:100F4000B10541F025E32A95F1F700000197A109C9
:100F5000B109E1CF80910A020C94BF021F920F9257
:100F60000FB60F9211242F933F934F935F936F937C
:100F70007F938F939F93AF93BF93EF93FF9383E3FD
:100F800092E00E940C01FF91EF91BF91AF919F9170
:100F90008F917F916F915F914F913F912F910F9022
:100FA0000FBE0F901F9018951F920F920FB60F92C1
:100FB00011242F938F939F93EF93FF93E09143021C
:100FC000F09144028081E0914902F0914A0282FD51
:100FD0001BC0908180914C028F5F8F7320914D02D6
:100FE000821741F0E0914C02F0E0ED5CFD4F958FEF
:100FF00080934C02FF91EF919F918F912F910F90D1
:101000000FBE0F901F9018958081F4CF1F920F9202
:101010000FB60F9211242F933F938F939F93AF930B
:10102000BF938091B5019091B601A091B701B091A5
:10103000B8013091B40123E0230F2D3758F5019604
:10104000A11DB11D2093B4018093B5019093B60109
:10105000A093B701B093B8018091B9019091BA0102
:10106000A091BB01B091BC010196A11DB11D80935F
:10107000B9019093BA01A093BB01B093BC01BF9199
:10108000AF919F918F913F912F910F900FBE0F9035
:101090001F90189526E8230F0296A11DB11DD2CFEF
:1010A0001F920F920FB60F9211242F933F934F93DD
:1010B0005F936F937F938F939F93AF93BF93EF93C0
:1010C000FF938091B900887F803609F44AC0F0F51B
:1010D000883209F4A7C018F5803109F49BC0B8F430
:1010E000882309F4F9C0883009F494C0FF91EF9186
:1010F000BF91AF919F918F917F916F915F914F9130
:101100003F912F910F900FBE0F901F90189588312F
:1011100009F488C0803251F78093070214C08034EC
:1011200009F49DC040F48033B9F38833F9F6809315
:10113000070285ECB0C0803509F485C0883509F414
:1011400096C0883499F60E947607D0CF883909F482
:101150008CC038F5883729F050F4883611F0803784
:1011600029F683E0809309021092B30157C08838B2
:1011700009F47BC0803919F0803809F0B7CF80912D
:10118000B301803208F071C0E091B30181E08E0FAD
:101190008093B3018091BB00F0E0ED56FE4F808359
:1011A0003DC0803B39F0E0F4803A09F479C0883AD8
:1011B00009F09CCF84E08093090210929201109272
:1011C0009101E091BF01F091C001099580919101D9
:1011D00081110FC081E0809391011092710109C0CB
:1011E000803C09F4A6CF883C09F4A3CF883B09F0E2
:1011F0007DCFE091920181E08E0F80939201F0E02B
:10120000EF58FE4F80818093BB00909192018091B6
:10121000910129C08091E4018093BB0085EC80930B
:10122000BC0064CF9091060280910502981758F592
:10123000E091060281E08E0F80930602F0E0EB5110
:10124000FE4F8081E9CFE091060281E08E0F80930E
:1012500006028091BB00F0E0EB51FE4F808390913D
:101260000602809105029817C8F285E8D8CFE09170
:10127000060281E08E0F809306028091BB00F0E0B1
:10128000EB51FE4F80838091080281115CCF81E099
:101290008093E30184EA8093BC001092090226CF78
:1012A00085EC8093BC00109209028091B3018032DA
:1012B00030F4E091B301F0E0ED56FE4F1082609102
:1012C000B30170E0E091BD01F091BE0183E991E0CE
:1012D00009951092B3010ACF1092070234CFE3E3CD
:1012E000F2E01382128288EE93E0A0E0B0E0848303
:1012F0009583A683B78324E031E03183208325ECF6
:1013000030E03587248724EC30E03787268720ECCF
:1013100030E0318B208B21EC30E0338B228B22ECC0
:1013200030E0358B248B26EC30E0378B268B118E0A
:10133000128E138E148EE0EDF2E0138212828483FB
:101340009583A683B78386E191E091838083089596
:10135000789484B5826084BD84B5816084BD85B590
:10136000826085BD85B5816085BD80916E0081609C
:1013700080936E0010928100809181008260809342
:101380008100809181008160809381008091800044
:101390008160809380008091B10084608093B1006F
:1013A0008091B00081608093B00080917A00846069
:1013B00080937A0080917A00826080937A00809195
:1013C0007A00816080937A0080917A0080688093AF
:1013D0007A001092C100E0914302F091440282E051
:1013E0008083E0913F02F09140021082E09141023F
:1013F000F09142028FEC808310924B02E091470201
:10140000F091480286E08083E0914502F091460227
:10141000808180618083E0914502F0914602808165
:1014200088608083E0914502F09146028081806867
:101430008083E0914502F091460280818F7D808318
:1014400083E08093DC021092C2011092C1011092DD
:101450001002109232020E94A1028CE890E0909358
:10146000C0018093BF018DE890E09093BE0180930E
:10147000BD0180ED0E949505853529F087E291E058
:101480000E943805FFCF8AEA0E9455059093DE023C
:101490008093DD028CEA0E9455059093E0028093D0
:1014A000DF028EEA0E9455059093E2028093E102EA
:1014B00080EB0E9455059093EE028093ED0282EB43
:1014C0000E9455059093F0028093EF0284EB0E94F6
:1014D00055059093F2028093F10286EB0E94550528
:1014E0009093E4028093E30288EB0E945505909369
:1014F000E6028093E5028AEB0E9455059093E8028C
:101500008093E7028CEB0E9455059093EA0280934A
:10151000E9028EEB0E9455059093EC028093EB025A
:1015200061E08DE00E94F20161E08CE00E94F20136
:1015300061E08BE00E94F20161E08AE00E94F2012A
:1015400061E089E00E94F20161E088E00E94F2011E
:1015500061E087E00E94F20162E086E00E94F20111
:1015600062E085E00E94F20162E084E00E94F20104
:1015700060E08DE00E94C40160E08CE00E94C40144
:1015800060E08BE00E94C40160E08AE00E94C40138
:1015900060E089E00E94C40160E088E00E94C4012C
:1015A00060E087E00E94C40150EA452E50E0552ECD
:1015B0006CE8662E60E0762E70E0C72E70E0D72EC5
:1015C0000E9489057C018090F1029090F202A09027
:1015D000EF02B090F0020091E9021091EA02C0918E
:1015E000EB02D091EC020E94BF050E94BF05E4EB24
:1015F000F0E08491F2012490F3013490332009F457
:1016000042C081110E949B01E32DF0E0EE0FFF1F0D
:10161000E458FF4FA591B4918C912822A1F160E08C
:101620008DE00E94C40160E08CE00E94C40160E093
:101630008BE00E94C40160E08AE00E94C40160E087
:1016400089E00E94C40160E088E00E94C40160E07B
:1016500087E00E94C4018BE591E00E9438058BE68B
:1016600091E00E9438058BE591E00E943805C11495
:10167000D10409F4A5CF0E94F800882309F4A0CF73
:101680000E9400009DCF970150E040E028193909E1
:1016900041095109D5010E941F0E4B015C018FE0E9
:1016A000B594A794979487948A95D1F7012E000C4E
:1016B000220B330BC901B8012BE0660F771F881F7F
:1016C000991F2A95D1F79E01DD0F440B550B280D6C
:1016D000391D4A1D5B1D0E94000ECA01B901680D2B
:1016E000791D8A1D9B1D685F7F4F8F4F9F4F34E090
:1016F00095958795779567953A95D1F70E94190D3D
:1017000020E030E040E251E40E94A50C4B015C0176
:1017100020E030E040E851E40E94A00C87FF23C0A5
:1017200060E08DE00E94C40160E08CE00E94C40192
:1017300060E08BE00E94C40160E08AE00E94C40186
:1017400060E089E00E94C40160E088E00E94C4017A
:1017500060E087E00E94C40168E873E180E090E007
:101760000E94480284CF20E030E040E851E4C50107
:10177000B4010E94C90D87FD24C020E030E040E99B
:1017800051E4C501B4010E94A00C87FF1AC060E0BB
:101790008DE00E94C40160E08CE00E94C40160E022
:1017A0008BE00E94C40160E08AE00E94C40160E016
:1017B00089E00E94C40160E088E00E94C40161E009
:1017C000C8CF20E030E040E951E4C501B4010E94F7
:1017D000C90D87FD20C020E030E040EA51E4C5019A
:1017E000B4010E94A00C87FF16C060E08DE00E944B
:1017F000C40160E08CE00E94C40160E08BE00E94C4
:10180000C40160E08AE00E94C40160E089E00E94B7
:10181000C40161E0D1CF20E030E040EA51E4C501ED
:10182000B4010E94C90D87FD1CC020E030E040EBF0
:1018300051E4C501B4010E94A00C87FF12C060E012
:101840008DE00E94C40160E08CE00E94C40160E071
:101850008BE00E94C40160E08AE00E94C40161E064
:10186000D5CF20E030E040EB51E4C501B4010E9447
:10187000C90D87FD18C020E030E040EC51E4C501FF
:10188000B4010E94A00C87FF0EC060E08DE00E94B2
:10189000C40160E08CE00E94C40160E08BE00E9423
:1018A000C40161E0D9CF20E030E040EC51E4C50153
:1018B000B4010E94C90D87FD14C020E030E040ED66
:1018C00051E4C501B4010E94A00C87FF0AC060E08A
:1018D0008DE00E94C40160E08CE00E94C40161E0E0
:1018E000DDCF20E030E040ED51E4C501B4010E94BD
:1018F000C90D87FD0BC020E030E040EE51E4C5018A
:10190000B4010E94A00C60E087FD15C020E030E02B
:1019100040EE51E4C501B4010E94C90D87FD1CCF02
:1019200020E030E040EF51E4C501B4010E94A00C7A
:1019300087FF12CF61E08DE00E94C40161E0CCCF4F
:101940000E94540D08F481E008950E94B90C0C9493
:101950008F0D0E94880D58F00E94810D40F029F4EF
:101960005F3F29F00C94780D51110C94C30D0C9429
:101970007E0D0E94A00D68F39923B1F3552391F3D6
:10198000951B550BBB27AA2762177307840738F0EE
:101990009F5F5F4F220F331F441FAA1FA9F335D04B
:1019A0000E2E3AF0E0E832D091505040E695001CFF
:1019B000CAF72BD0FE2F29D0660F771F881FBB1FB9
:1019C000261737074807AB07B0E809F0BB0B802D97
:1019D000BF01FF2793585F4F3AF09E3F510578F0C3
:1019E0000C94780D0C94C30D5F3FE4F3983ED4F350
:1019F000869577956795B795F7959F5FC9F7880F97
:101A0000911D9695879597F90895E1E0660F771FE8
:101A1000881FBB1F621773078407BA0720F0621B79
:101A2000730B840BBA0BEE1F88F7E0950895E894CA
:101A300009C097FB3EF490958095709561957F4F16
:101A40008F4F9F4F9923A9F0F92F96E9BB279395C4
:101A5000F695879577956795B795F111F8CFFAF4D4
:101A6000BB0F11F460FF1BC06F5F7F4F8F4F9F4F05
:101A700016C0882311F096E911C0772321F09EE863
:101A8000872F762F05C0662371F096E8862F70E0C9
:101A900060E02AF09A95660F771F881FDAF7880FA3
:101AA0009695879597F90895990F0008550FAA0BF9
:101AB000E0E8FEEF16161706E807F907C0F0121661
:101AC0001306E407F50798F0621B730B840B950B64
:101AD00039F40A2661F0232B242B252B21F40895B9
:101AE0000A2609F4A140A6958FEF811D811D089556
:101AF00097F99F6780E870E060E008959FEF80ECC1
:101B0000089500240A941616170618060906089563
:101B100000240A9412161306140605060895092EC9
:101B20000394000C11F4882352F0BB0F40F4BF2B38
:101B300011F460FF04C06F5F7F4F8F4F9F4F089578
:101B400057FD9058440F551F59F05F3F71F047956E
:101B5000880F97FB991F61F09F3F79F08795089553
:101B6000121613061406551FF2CF4695F1DF08C072
:101B7000161617061806991FF1CF8695710561058F
:101B800008940895E894BB2766277727CB0197F937
:101B900008950E94540D08F48FEF0895DB018F9390
:101BA0009F930E941F0EBF91AF91A29F800D911D28
:101BB000A39F900DB29F900D11240895A1E21A2EBB
:101BC000AA1BBB1BFD010DC0AA1FBB1FEE1FFF1FE1
:101BD000A217B307E407F50720F0A21BB30BE40B31
:101BE000F50B661F771F881F991F1A9469F7609578
:101BF0007095809590959B01AC01BD01CF01089532
:101C0000052E97FB1EF400940E94170E57FD07D077
:101C10000E94DE0D07FC03D04EF40C94170E509575
:101C20004095309521953F4F4F4F5F4F08959095C8
:101C30008095709561957F4F8F4F9F4F08950E94BB
:101C4000380EA59F900DB49F900DA49F800D911DFF
:101C500011240895B7FF0C941F0E0E941F0E821BC3
:101C6000930B0895EE0FFF1F0590F491E02D09945A
:101C7000A29FB001B39FC001A39F700D811D1124CD
:101C8000911DB29F700D811D1124911D0895F8942E
:101C9000FFCF000000002E018E00BB007B01EC0096
:101CA000CA00DE0000000000ED04C0043505960403
:101CB000B904A60497040D0A00436F756C64206E86
:101CC0006F742066696E6420612076616C6964209F
:101CD000424D503038352073656E736F722C20631F
:101CE0006865636B20776972696E6721003D3D3DD1
:101CF0003D3D3D3D3D3D3D3D3D3D3D3D004F46462D
:021D00000000E1
:107E0000112484B714BE81FFF0D085E080938100F7
:107E100082E08093C00088E18093C10086E0809377
:107E2000C20080E18093C4008EE0C9D0259A86E02C
:107E300020E33CEF91E0309385002093840096BBD3
:107E4000B09BFECF1D9AA8958150A9F7CC24DD24C4
:107E500088248394B5E0AB2EA1E19A2EF3E0BF2EE7
:107E6000A2D0813461F49FD0082FAFD0023811F036
:107E7000013811F484E001C083E08DD089C08234E0
:107E800011F484E103C0853419F485E0A6D080C0E4
:107E9000853579F488D0E82EFF2485D0082F10E0AE
:107EA000102F00270E291F29000F111F8ED06801E7
:107EB0006FC0863521F484E090D080E0DECF843638
:107EC00009F040C070D06FD0082F6DD080E0C81688
:107ED00080E7D80618F4F601B7BEE895C0E0D1E017
:107EE00062D089930C17E1F7F0E0CF16F0E7DF06D8
:107EF00018F0F601B7BEE89568D007B600FCFDCFD4
:107F0000A601A0E0B1E02C9130E011968C91119780
:107F100090E0982F8827822B932B1296FA010C0160
:107F200087BEE89511244E5F5F4FF1E0A038BF0790
:107F300051F7F601A7BEE89507B600FCFDCF97BE46
:107F4000E89526C08437B1F42ED02DD0F82E2BD052
:107F50003CD0F601EF2C8F010F5F1F4F84911BD097
:107F6000EA94F801C1F70894C11CD11CFA94CF0C13
:107F7000D11C0EC0853739F428D08EE10CD085E9AC
:107F80000AD08FE07ACF813511F488E018D01DD067
:107F900080E101D065CF982F8091C00085FFFCCF94
:107FA0009093C60008958091C00087FFFCCF809118
:107FB000C00084FD01C0A8958091C6000895E0E648
:107FC000F0E098E1908380830895EDDF803219F02E
:107FD00088E0F5DFFFCF84E1DECF1F93182FE3DFCA
:107FE0001150E9F7F2DF1F91089580E0E8DFEE27F6
:047FF000FF270994CA
:027FFE00040479
:00000001FF
